:100000000C945C010C94A3010C94A3010C94A30127
:100010000C94A3010C94A3010C94A3010C94A301D0
:100020000C94A3010C94A3010C94321B0C94051C9A
:100030000C944E120C94A3010C94A3010C94A301F4
:100040000C94A3010C94A3010C94A3010C94A301A0
:100050000C94A3010C94AF120C94A3010C94A30173
:100060000C94A3010C94A3010C94A3010C94A30180
:100070000C94A3010C94A3010C94A3010C94A30170
:100080000C94A3010C94A3010C94A3010C94A30160
:100090000C94A3010C94A3010C94A3010C94A30150
:1000A0000C94A3010C94A3010C94A301E1001A0089
:1000B000E000010001000100010001000100010059
:1000C0000100010001000100010001000100010028
:1000D0000100010001000100010001000100010018
:1000E0000100010001000100010001000100010008
:1000F00001000100010001000100010001000100F8
:1001000001000100010001000100010012036B0069
:100110006500790062006F006100720064000000F9
:10012000160371006D006B006200750069006C00C1
:1001300064006500720000000403090409026D00F8
:10014000040100A0FA0904000001030101000921D3
:10015000110100012240000705810308000A09047B
:1001600001000103010200092111010001224D00DB
:100170000705820308000A090402000103000000C9
:100180000921110100012236000705830308000A36
:1001900009040300010300000009211101000122EC
:1001A000390007058403200001120110010000003E
:1001B00008EDFE606001000102000105010906A1D1
:1001C00001050719E029E71500250195087501814A
:1001D000020508190129059505750191029501751A
:1001E0000391010507190029F71500250195F875F8
:1001F000018102C005010980A101850216010026C6
:1002000003001A81002A8300751095018100C00542
:100210000C0901A1018503160100269C021A0100A8
:100220002A9C02751095018100C005010902A101F7
:100230000901A100050919012905150025019505E8
:1002400075018102950175038101050109300931AC
:100250001581257F95027508810609381581257F4E
:10026000950175088106050C0A38021581257F95D0
:100270000175088106C0C005010906A1010507191D
:10028000E029E715002501950875018102950175A2
:100290000881010508190129059505750191029547
:1002A00001750391010507190029FF150026FF00BC
:1002B000950675088100C00011241FBECFEFDAE05B
:1002C000DEBFCDBF04B603FE27C08091F40190913C
:1002D000F501A091F601B091F7018730904BA7404E
:1002E000B04BD1F41092F4011092F5011092F60186
:1002F0001092F70114BE84B7877F84BF0FB6F894BD
:10030000A8958091600088618093600010926000E1
:100310000FBEE0E0F8E3099511E0A0E0B1E0E4EE03
:10032000FEE302C005900D92AA32B107D9F721E091
:10033000AAE2B1E001C01D92A43FB207E1F70E941A
:1003400088180C94441F0C94000090E080E00895FD
:100350000895089581E00895089581E008950C942A
:10036000AA010E94A50A2FEF84E39CE0215080405F
:100370009040E1F700C000000C94D212EF92FF927F
:100380000F931F93CF93DF938C01FC01E080F180EA
:1003900080914901811140C082818823C1F1C70148
:1003A0000E942A10C82F682FC7010E94D30FB701DF
:1003B0008C2F0E94F602EC01B8010E94AF01882345
:1003C00009F44BC0B801CE010E94FE04882309F451
:1003D00044C0C531F0E7DF0720F5C23080E7D80719
:1003E00008F04DC0C115E0E7DE0791F1C130D047FC
:1003F000E1F181E080932C0180932D01C801DF9110
:10040000CF911F910F91FF90EF900C94AD01C70118
:100410000E940110C82FCBCFC7010E942A10B7013C
:10042000C8CFCC3380E7D80709F49BC0CD33D04781
:1004300001F7F8018281882309F4BAC010922D01D6
:100440000E947E1290932B0180932A0180E296C035
:10045000F801828181110E94B10180E0DF91CF918A
:100460001F910F91FF90EF900895F80182818823EA
:10047000A1F38091B40181608093B401EECFF801C3
:100480008281882309F4BACF0E94E511811102C04C
:100490000E94CB110E94021290E09093E60180939B
:1004A000E501FE01E350F0478091E5018160E23112
:1004B000F10538F4EA5BF04E0C94F41E8091E501EE
:1004C00082608093E5018091E5010E9406120E94FE
:1004D000A50AC3CF8091E5018460F3CF8091E50147
:1004E0008860EFCF8091E5018061EBCF8091E501DD
:1004F0008062E7CF8091E5018064E3CF8091E501E0
:100500008068DFCF8091E5018C60DBCF8091E501D1
:100510008E7FD7CF8091E5018D7FD3CF8091E5018C
:100520008B7FCFCF8091E501877FCBCF8091E50195
:100530008F7EC7CF8091E5018F7DC3CF8091E5018C
:100540008F7BBFCF8091E5018F77BBCF8091E50195
:10055000837FB7CF9091E501892F97FB87F980586A
:10056000B0CFF8018281882361F010922C010E94A3
:100570007E1290932B0180932A0182E00E940A0848
:100580006CCF80912C0181110FC080912A01909134
:100590002B010E948A12883C910530F486E20E9469
:1005A000DF0686E20E94BB0782E00E94110855CF59
:1005B00080912D0181110FC080912A0190912B0112
:1005C0000E948A12883C910530F487E20E94DF067F
:1005D00087E20E94BB0780E2E8CF0C944D050C94A3
:1005E0004F050C94AC010C94F1020895272F280FAD
:1005F0003327331FF901C901880F991FE80FF91F2D
:10060000E60FF11DEE0FFF1FE455FF4F859194910A
:100610000895FC01EE0FFF1FE45FFE4F859194915A
:1006200008950E94F6020E9482049C01811540E414
:10063000940708F097C0211580E3380708F0FAC046
:10064000203E310508F074C0203C310508F0E5C0BB
:10065000283A310588F4253A310508F0E2C0213006
:10066000310509F477C0C9010497813A910508F46E
:1006700071C030E020E06EC0C901885A91094597E9
:10068000C0F7283A310509F4FEC0293A310509F4CA
:10069000FDC02A3A310509F4FCC02B3A310509F4B2
:1006A000FBC02C3A310509F4FAC02B3B310509F4A3
:1006B000F9C02C3B310509F4F8C02D3A310509F495
:1006C000F7C0203B310509F4F6C02E3A310509F494
:1006D000F5C02F3A310509F4F4C0213B310509F486
:1006E000F3C0223B310509F4F2C0233B310509F484
:1006F000F1C0243B310509F4F0C0253B310509F474
:10070000EFC0263B310509F4EEC0273B310509F463
:10071000EDC0283B310509F4ECC0293B310509F453
:10072000EBC02A3B310509F4EAC020E034E412C0F2
:10073000211590E2390780F42F3F310509F050F47C
:10074000283E310538F0C901805F91093065409736
:1007500008F08FCFC9010895C9019F700E94090355
:100760009C01F8CF8115944508F041C0211583E51F
:10077000380708F06AC0211592E5390738F52115C8
:1007800041E5340708F05CC0211580E5380708F41E
:1007900054C0C90134E0969587953A95E1F7837086
:1007A000422F46954695437090E2499FA00111243F
:1007B000582B822F837021E030E002C0220F331FBC
:1007C0008A95E2F7242B352B3C68C4CFC90183708E
:1007D000992741E050E002C0440F551F8A95E2F787
:1007E0002695269580E2289F90011124EBCF2115B4
:1007F00096E5390748F4922F882721153545C8F525
:100800009C01246F306AA6CFC90190563F708115B4
:10081000904108F02ECF30629DCFC901805C9109D4
:100820009DCF253A310549F1263A310549F522E8AF
:1008300030E490CF3327306C8DCF3F70306A8ACF51
:10084000322F2227216F306A85CFC9018370992703
:1008500041E050E002C0440F551F8A95E2F726950B
:10086000269580E2289F90011124242B352B3A688D
:1008700071CF88279F719C01CECF21E830E46ACFE9
:1008800023E830E467CF22EE34E464CF29EE34E489
:1008900061CF2AEE34E45ECF25EB34E45BCF26EB68
:1008A00034E458CF23EB34E455CF24EB34E452CF77
:1008B00027EB34E44FCF2CEC34E44CCF2DEC34E474
:1008C00049CF23E835E446CF2AE835E443CF22E98F
:1008D00035E440CF24E935E43DCF21E236E43ACF98
:1008E00023E236E437CF24E236E434CF25E236E49F
:1008F00031CF26E236E42ECF27E236E42BCF2AE2B0
:1009000036E428CF803E910581F1C8F4813391050A
:1009100009F462C048F48932910509F456C08A325C
:10092000910509F460C0089589339105B9F08238C2
:100930009105A1F08533910509F440C00895863EE4
:10094000910561F138F4823E9105B1F0833E910545
:10095000E1F00895873E910551F108952091E50158
:100960002370D9F080EE90E008952091E50120FFFA
:1009700014C089E390E008952091E50122FF0DC0A5
:1009800024FD09C083EE90E008952091E50122FD49
:1009900031C024FF02C090E080E008952091E5017D
:1009A00023FFFBCF24FDF7CF87EE90E00895209141
:1009B000E50123FFEECF86EE90E008952091E5015A
:1009C00025FFEBCF89E290E008952091E50125FF16
:1009D000E4CF85E390E008952091E50126FFDDCF87
:1009E0008AE290E008952091E50126FFD6CF81E3C9
:1009F00090E0089582EE90E0089508950F931F937C
:100A0000CF938C01FB018281811106C0C1E08C2F44
:100A1000CF911F910F910895C0913B01C11125C045
:100A20000531104799F70E94FD0481E080933B0156
:100A30000E947E1290933A018093390110922E0108
:100A40001092300110922F01109232011092310158
:100A50001092340110923301109236011092350138
:100A60001092380110923701D2CF809139019091C4
:100A70003A010E948A12883C910540F680912E012D
:100A8000E82FF0E0EE0FFF1FE15DFE4F11830083C2
:100A90008F5F80932E01C0E0BACF0C94A8010C9414
:100AA000A901CF93DF9385B7806885BF85B780683C
:100AB00085BF2098289AA3E1B1E046E151E0C1E06A
:100AC000D0E08D91E82FE295EF70F0E061A18F709A
:100AD0009E0101C0220F8A95EAF7922F90959623E6
:100AE00091A382A1822B82A34A175B0751F7109230
:100AF0003D0110923C01DF91CF910C94ED02509199
:100B00003C0110923C01209A289880EA8A95F1F7DE
:100B1000A3E1B1E090E080E061E070E03D91E32F7F
:100B2000E295EF70F0E020A140913C013F70FB01A5
:100B300001C0EE0F3A95EAF72E2391F5262F082EE5
:100B400001C0220F0A94EAF7242B20933C0101965E
:100B50008330910519F72098289A80913C01581705
:100B600049F081E080933E010E947E129093400103
:100B700080933F0180913E01882371F080913F0175
:100B8000909140010E948A12069730F080913C01BA
:100B900080933D0110923E010E94EF0281E0089592
:100BA00020E0D2CFE82FF0E0E35CFE4F8081089593
:100BB000089590934601809345010895E091450181
:100BC000F0914601309721F00190F081E02D0994D9
:100BD00080E00895E0914501F0914601309721F0C1
:100BE0000280F381E02D09940895E0914501F09190
:100BF0004601309721F00480F581E02D0994089595
:100C000020914301309144012817390771F09093E6
:100C1000440180934301E0914501F09146013097F2
:100C200021F00680F781E02D09940895209141017B
:100C3000309142012817390771F090934201809357
:100C40004101E0914501F0914601309721F0008487
:100C5000F185E02D0994089508950C942C060E94C6
:100C600075120E9451050C943013EF92FF921F935E
:100C7000CF93DF9300D000D00F92CDB7DEB70E94A4
:100C80007F0580E00E94D205182F80914801F82E40
:100C9000F126811781F08091B40181FD0E94D80571
:100CA000F0FC1AC0F1FA882780F9F1FC52C092E0FA
:100CB00082E0F2FC13C08FEF89838A831B820E943B
:100CC0007E128160782F9D838C8349815A816B814C
:100CD0008D810E94B60625C090E080E099831A823B
:100CE00021E030E0790102C0EE0CFF1C8A95E2F7AA
:100CF000812F90E08E219F21892B09F420E02B8306
:100D00000E947E128160782F9D838C8349815A8155
:100D10006B818D810E94B60680914801E826E092A1
:100D200048010E94DD150E94DE0590914701891758
:100D300091F00E94DE05809347010F900F900F9075
:100D40000F900F90DF91CF911F91FF90EF900C9437
:100D5000F30291E0C3CF0F900F900F900F900F9080
:100D6000DF91CF911F91FF90EF900895CF93DF9384
:100D7000CDB7DEB72B970FB6F894DEBF0FBECDBF51
:100D80004F83588769877A878B871E8285E0FE01AB
:100D90003796DE01119601900D928A95E1F749810F
:100DA0005A816B817C818D819E812B960FB6F89440
:100DB000DEBF0FBECDBFDF91CF910C942D0D8823E8
:100DC00009F4D8C0823871F40E94DE0581FDD2C0DA
:100DD00089E30E94D2100E949C1189E30E940F11A6
:100DE0000C949C11833859F40E94DE0580FDC2C02A
:100DF00083E50E94D2100E949C1183E5EFCF8438D6
:100E000059F40E94DE0582FDB5C087E40E94D2102D
:100E10000E949C1187E4E2CF9CEF980F913A18F45E
:100E20000E94D210DDCF90E2980F983050F4877076
:100E300091E001C0990F8A95EAF7892F0E9453111A
:100E4000CFCF9BE5980F933070F4853A31F0863A16
:100E500039F083E890E00C94000681E890E0FBCF45
:100E600082E890E0F8CF98E5980F953108F082C0BD
:100E7000883A09F440C0893A09F440C08A3A09F432
:100E800040C08B3A09F440C08C3A09F440C08B3B17
:100E900009F440C08C3B09F440C08D3A09F440C0CD
:100EA000803B09F440C08E3A09F440C08F3A09F4FF
:100EB00040C0813B09F440C0823B09F440C0833B01
:100EC00009F440C0843B09F440C0853B09F440C0AC
:100ED000863B09F440C0873B09F440C0883B09F4D5
:100EE00040C0893B09F440C08A3B09F440C090E00F
:100EF00080E00C94160682EE90E0FBCF89EE90E045
:100F0000F8CF8AEE90E0F5CF85EB90E0F2CF86EB5C
:100F100090E0EFCF83EB90E0ECCF84EB90E0E9CF73
:100F200087EB90E0E6CF8CEC90E0E3CF8DEC90E0A7
:100F3000E0CF83E891E0DDCF8AE891E0DACF82E983
:100F400091E0D7CF84E991E0D4CF81E292E0D1CF94
:100F500083E292E0CECF84E292E0CBCF85E292E0D2
:100F6000C8CF86E292E0C5CF87E292E0C2CF8AE2A4
:100F700092E0BFCF0895882309F44BC0823871F402
:100F80000E94DE0581FF45C089E30E94D2100E94C5
:100F90009C1189E30E940F110C949C11833859F421
:100FA0000E94DE0580FF35C083E50E94D2100E94BA
:100FB0009C1183E5EFCF843859F40E94DE0582FF4F
:100FC00028C087E40E94D2100E949C1187E4E2CFDF
:100FD0009CEF980F913AF0F290E2980F983050F40D
:100FE000877091E001C0990F8A95EAF7892F0E94D6
:100FF0005911D2CF9BE5980F933020F490E080E018
:101000000C940006885A853120F490E080E00C941E
:1010100016060895882321F00E9453110C949C1108
:101020000895882321F00E9459110C949C11089571
:101030008F929F92AF92BF92DF92EF92FF920F93A7
:101040001F93CF93DF9300D000D00F92CDB7DEB7C0
:101050007C016D837983FC01058102950F701281FB
:1010600011110E9472110E94CB10D82E882371F0AA
:101070001123A1F08D81805E883080F082E00E9493
:10108000B5100E94CB1091E0D82ED926E981E295C7
:10109000EF70F0E0E85AF04E0C94F41ED12CF6CF2D
:1010A00009810F70F981F07F11F00295007F112303
:1010B000B1F0002361F08D81805E883018F02D81C1
:1010C000211109C0802F0E9453110E949C118D8113
:1010D0000E94DF0615C0802F0E946411F6CF8D811B
:1010E0000E94BB07002361F08D81805E883018F07C
:1010F0003D81311129C0802F0E9459110E949C11FD
:10110000DD2009F4D3C10E94A81080FDCFC1F701F2
:1011100012820E94A2100E94EB0EC7010E94670A71
:101120000E94A2100F900F900F900F900F90DF91E0
:10113000CF911F910F91FF90EF90DF90BF90AF90F4
:101140009F908F900C940D0F802F0E946A11D6CF24
:1011500049814F70B42E5981507F503219F0B294AA
:1011600080EFB8228D81882369F0813029F1112325
:1011700069F1002359F0F701858180FFA8CF8F70B6
:10118000858304C0112361F0011104C08B2D0E94DE
:101190000A08B6CF8B2D0130D1F70E948611B0CF4F
:1011A000011106C00E9489118B2D0E941108A8CF41
:1011B000013009F4A5CFF6CF112321F0063008F055
:1011C0009FCFE4CF053008F09BCFEECF002361F333
:1011D0008D810E94BB0794CF898186958695837007
:1011E00069F0813009F08CCF8D8199819370111154
:1011F00002C090E080E00E94160682CF8D81998126
:101200009370111102C090E080E00E94000678CF38
:101210008D81112329F00E94EB140E94D21570CF0A
:101220000E945315FACF8981837009F05FC01111B4
:1012300067CF2D81229526952770220F220F8D8151
:101240008F7090E0B0E0A0E04C015D01022E04C080
:10125000880C991CAA1CBB1C0A94D2F7FD8160E083
:1012600070E0CB01F4FF0FC06FE070E080E090E031
:1012700004C0660F771F881F991F2A95D2F76095C3
:1012800070958095909529812695269523702D83BC
:101290002230B1F0233019F19B01AC012829392902
:1012A0004A295B2929833A834B835C833D81698189
:1012B0007A818B819C813130B1F00E94780E20CFF1
:1012C0009B01AC01282939294A295B2929833A83C2
:1012D0004B835C83CA01B9010E94A20E11CF0E9408
:1012E000780EC501B4010E944E0E0ACF86951123D7
:1012F00011F089818170882309F402CF2D81229514
:1013000026952770220F220F8D818F7090E0B0E01C
:10131000A0E04C015D01022E04C0880C991CAA1C9F
:10132000BB1C0A94D2F73D8160E070E0CB0134FF32
:101330000FC06FE070E080E090E004C0660F771FA0
:10134000881F991F2A95D2F7609570958095909582
:1013500049814695469543704D834230B1F0433004
:1013600019F19B01AC01282939294A295B292983D4
:101370003A834B835C833D8169817A818B819C8137
:101380003130B1F00E947E0FBBCE9B01AC01282909
:1013900039294A295B2929833A834B835C83CA0113
:1013A000B9010E94A80FACCE0E947E0FC501B40106
:1013B0000E94540FA5CE3D81323F09F447C080F40E
:1013C000303F79F1313FD9F1832F805E8031D0F009
:1013D000112309F456C001117ACE89818F7133C06F
:1013E0004D81433FD1F1443F99F7112309F43FC0A8
:1013F00089818F7189830E94EB0E63E089810E944D
:10140000AC107ECE5D815F705D8389818F71112309
:1014100021F00E94EB0E8D81BACE0E940D0F8D81BE
:10142000C4CE112341F0053008F06ACE89818F7156
:101430000E94320F65CE063008F062CEF7CF898168
:101440008F71112339F00E94EB0E5ACE89818F7172
:101450001123C9F30E940D0F53CE112329F0898166
:101460008F710E94D60E4CCE0E94CC0E49CE81E0E8
:101470000E94B510023008F443CE82E00E94B510FD
:101480003FCE0111A5CE89818F71E4CF49814F7084
:101490006D81C7010E94A5010E94C70D31CE49810F
:1014A0004F706D81C7010E94F5022ACE0F900F90F8
:1014B0000F900F900F90DF91CF911F910F91FF90A0
:1014C000EF90DF90BF90AF909F908F9008950F9313
:1014D0001F93CF93DF93EC018B819C81892B29F0A3
:1014E0008881998189238F3F29F4DF91CF911F91C2
:1014F0000F910895CE010E94BE018823B1F3688147
:1015000079818A810E9478108C010E94D20F0E94FA
:10151000430EB801CE01DF91CF911F910F910C9432
:1015200018080E9472110E9483110E9445110E94A6
:101530009C110E94C3160E94D21590E080E00E9488
:10154000000690E080E00C9416060E9461110C9455
:10155000910A0E946C10282F892F82958F70903CE1
:1015600080F48A30B0F4843020F4823090F480E04B
:1015700008958630E1F781E0203E88F0213FB9F7F9
:101580000EC08C3011F08F3091F793FB882780F9D3
:10159000089581E0203F39F018F4203E40F7089587
:1015A000243F29F7FCCF0895CF93DF9300D000D0DC
:1015B0000F92CDB7DEB70F900F900F900F900F9056
:1015C000DF91CF910895CF93DF9300D000D000D06A
:1015D000CDB7DEB726960FB6F894DEBF0FBECDBFEF
:1015E000DF91CF9108951F93CF93DF93E0914A014C
:1015F00016E080914B018E1304C0DF91CF911F91B3
:101600000895CE2FD0E01E9FF0011124E45BFE4F21
:101610004081518162817381848195810E94E30AB6
:10162000FE013196E770E5CF40917C0150917D013C
:1016300060917E0170917F01809180019091810184
:101640000C94E30A1F93CF93DF9380918101807FF5
:10165000C1F480917E018823A1F080914A01C0915C
:101660004B0160917C0170917D0140917F0150910F
:101670008001D62FD723DA01A095B09516E0C813C4
:1016800004C0DF91CF911F91089590E0411551055D
:1016900011F0DF3F31F401968770F1CF2A0F3B1F25
:1016A00017C0189FF001199FF00D1124E45BFE4F45
:1016B00021812713F0CF20812613EDCF2281211124
:1016C000EACF238134812417350740F3241B350BDF
:1016D000283C310500F7209181012F702061209373
:1016E000810126E0289FF001299FF00D1124EF5A77
:1016F000FE4F80818F70806180838CE791E00E9433
:10170000670ADF91CF911F910C94F30A9F92AF92D9
:10171000BF92CF92DF92EF92FF920F931F93CF93DE
:10172000DF93CDB7DEB72B970FB6F894DEBF0FBEB1
:10173000CDBF8C0185E0F801DE01179601900D9276
:101740008A95E1F7D8014C9111965C911197129608
:10175000EC90129780917F0190918001009709F49D
:101760006BC120917C0130917D01632F62236F3F1B
:1017700009F462C11396CD90DC9090907E0199207F
:1017800009F4F8C0C816D90608F43FC0F601E81BF2
:10179000F90BCF01FF24F394883C910508F0F12C5C
:1017A0008CE7A82E81E0B82E80918101982F907F40
:1017B000FF2009F4B7C0911180C0FE2C35132AC058
:1017C000241328C0E11026C08F70806180938101AE
:1017D0000E94140BC5010E94670A80918101D80103
:1017E00015968C938F2D2B960FB6F894DEBF0FBEF7
:1017F000CDBFDF91CF911F910F91FF90EF90DF90C0
:10180000CF90BF90AF909F900895809590958C0D4C
:101810009D1DC0CFCD2829F0842F85238F3F09F04F
:1018200019C180E0B82FB170DB2EE0914A01209100
:101830004B0136E080FD1CC0EE20A1F280918101B9
:10184000816080938101F12CCDCF8E2F90E03E9F5F
:10185000F0011124E45BFE4F6181651306C06081D5
:10186000641303C062816E11E7CFFC013196E7700B
:10187000E213EBCF4F8358878F8198850E946C10BD
:10188000292F22952F70903260F0225F2F70223026
:1018900078F49F7051F0F8019581907F31F4D12C4C
:1018A0000AC09F7011F08823D1F3805E8830B8F3AE
:1018B000C8010E94670AFD2C95CF351306C024137A
:1018C00004C0D801EE2009F47BC04F8358878F8174
:1018D00098850E94A90A882309F4B8C0EE2009F46B
:1018E000B5C080918101803270F020917C013091EF
:1018F0007D013A8329831B82DD82CC828E83CE01D7
:1019000001960E94670A86E0F801ACE7B1E0019019
:101910000D928A95E1F70E94220B0E94140BFF247E
:10192000F39460CF911113C07C2DDB86CA866E2D97
:101930008B850E94D40A8CE791E00E94670A86E0BA
:10194000F50111928A95E9F70E94140B4BCF3513DC
:10195000BCCF2413BACFE110B8CFD80115968C9321
:10196000C8010E94670A86E0F50111928A95E9F79D
:10197000F92C38CFC816D90688F1B601681B790B47
:10198000CB01F12C883C910508F047C0FE2CEE20DD
:1019900009F45CC0351330C024132EC0809181013E
:1019A00080FD21C0982F907FF1F0D80115968C937F
:1019B0001597903F39F0982F907F905F8F70892B0B
:1019C00015968C93C8010E94670A86E0F801ACE77F
:1019D000B1E001900D928A95E1F7B6CF8095909590
:1019E0008C0D9D1DCECF86E0F801ACE7B1E00190F3
:1019F0000D928A95E1F7F6CE4F8358878F819885AF
:101A00000E94A90A81117FCF80918101816080931A
:101A10008101C8010E94670AE5CE7C2DDB86CA865B
:101A20006E2D8B850E94D40A86E0ECE7F1E0DF01A1
:101A30001D928A95E9F788CFEE2041F04F835887B1
:101A40008F8198850E94A90A81115DCFC8010E94EB
:101A5000670A65CF81E08E25E5CE1F93CF93DF9394
:101A6000CDB7DEB72C970FB6F894DEBF0FBECDBF53
:101A70004F83588769877A878B879C87CE01079623
:101A80000E94860B882369F08A859B85892B39F013
:101A90004F815885842F85238F3F09F071C016E050
:101AA0005FC086E0FE013796DE01119601900D922F
:101AB0008A95E1F78A859B85892B89F388859F81A3
:101AC00089238F3F61F320914B0130E0C9010196DA
:101AD0008770992740914A014817190671F40E94AE
:101AE000A50A10924B0110924A0186E0ECE7F1E062
:101AF000DF011D928A95E9F7D2CF96E0929FD0013F
:101B0000939FB00D1124A45BBE4FFE01319601904E
:101B10000D929A95E1F780934B010E94F30ABFCF93
:101B2000819FC0011124845B9E4F0E94860B8823F5
:101B3000E9F0E0914A011E9FF0011124E45BFE4FA1
:101B40004081518162817381848195810E94E30A81
:101B500080914A0190E001968770992780934A010D
:101B600080914A0190914B018913DACF2C960FB6E0
:101B7000F894DEBF0FBECDBFDF91CF911F910895C6
:101B800069857A858B859C850E94E30A88CFEF92D0
:101B9000FF920F931F93CF93DF938C01892B89F0D2
:101BA000F12CEE24E394E8012196F8018491843726
:101BB00009F457C0A0F4823009F43EC048F48130E3
:101BC000D1F0DF91CF911F910F91FF90EF90089589
:101BD0009CEF980F9037A8F70E94DF060AC0853760
:101BE00009F44CC09CE7980F903758F78F770E9404
:101BF000BB078E0116C00E5F1F4FFE01849190E25D
:101C0000980F983060F48770FE2D01C0FF0F8A9501
:101C1000EAF78F2F0E9475110E949C1102C00E944A
:101C2000DF068F2D815008F4BECFEFE9FFE031973A
:101C3000F1F700C00000F6CF0E5F1F4FFE01849148
:101C400090E2980F983050F48770FE2D01C0FF0F7E
:101C50008A95EAF78F2F0E947B11DECF0E94BB0787
:101C6000E0CF0E5F1F4FFE01C491C150D0F28FE94B
:101C70009FE00197F1F700C00000F7CF0E5F1F4F04
:101C8000FE01F490CECF089560938B0170938C0188
:101C900080938D0190938E010C94910ACF93DF93E2
:101CA00000D000D0CDB7DEB769837A838B839C8365
:101CB00080918B0190918C01A0918D01B0918E014A
:101CC00029813A814B815C81822B932BA42BB52BEC
:101CD00080938B0190938C01A0938D01B0938E0122
:101CE0000F900F900F900F90DF91CF910C94910A6D
:101CF000CF93DF9300D000D0CDB7DEB769837A836E
:101D00008B839C8380918B0190918C01A0918D019C
:101D1000B0918E0129813A814B815C81822393238A
:101D2000A423B52380938B0190938C01A0938D0104
:101D3000B0938E010F900F900F900F90DF91CF9185
:101D40000C94910ACF93DF9300D000D0CDB7DEB7CB
:101D500069837A838B839C8380918B0190918C0122
:101D6000A0918D01B0918E0129813A814B815C81D6
:101D700082279327A427B52780938B0190938C010A
:101D8000A0938D01B0938E010F900F900F900F9044
:101D9000DF91CF910C94910A1092870110928801E3
:101DA0001092890110928A010C94910A41E050E04E
:101DB00060E070E004C0440F551F661F771F8A95CE
:101DC000D2F7409387015093880160938901709303
:101DD0008A010C94910A282F81E090E0A0E0B0E005
:101DE00004C0880F991FAA1FBB1F2A95D2F74091E4
:101DF0008701509188016091890170918A01842B3B
:101E0000952BA62BB72B8093870190938801A093E5
:101E10008901B0938A010C94910A41E050E060E09E
:101E200070E004C0440F551F661F771F8A95D2F7D4
:101E300040955095609570958091870190918801AB
:101E4000A0918901B0918A0184239523A623B72309
:101E50008093870190938801A0938901B0938A01B0
:101E60000C94910A282F81E090E0A0E0B0E004C03B
:101E7000880F991FAA1FBB1F2A95D2F7409187018F
:101E8000509188016091890170918A01842795277A
:101E9000A627B7278093870190938801A093890193
:101EA000B0938A010C94910ACF93DF9300D000D0B5
:101EB000CDB7DEB769837A838B839C83809187015A
:101EC00090918801A0918901B0918A0129813A817C
:101ED0004B815C81822B932BA42BB52B80938701A4
:101EE00090938801A0938901B0938A010F900F907D
:101EF0000F900F90DF91CF910C94910ACF93DF93C5
:101F000000D000D0CDB7DEB769837A838B839C8302
:101F10008091870190918801A0918901B0918A01F7
:101F200029813A814B815C8182239323A423B523A9
:101F30008093870190938801A0938901B0938A01CF
:101F40000F900F900F900F90DF91CF910C94910A0A
:101F5000CF93DF9300D000D0CDB7DEB769837A830B
:101F60008B839C838091870190918801A091890146
:101F7000B0918A0129813A814B815C818227932724
:101F8000A427B5278093870190938801A0938901A6
:101F9000B0938A010F900F900F900F90DF91CF9127
:101FA0000C94910A0895292F220FE22FE90FE80FD0
:101FB0008E2F877041E001C0440F8A95EAF7E695BD
:101FC000E695E69585E0E89FF0011124EE57FE4F77
:101FD00030E020E070E05191DF011197CB01022E3B
:101FE00002C0969587950A94E2F7817081958527BE
:101FF000842385278C932F5F3F4F2530310559F778
:102000000895292F220FE22FE90FE80F9E2F9770D6
:10201000E695E695E69585E0E89FF0011124EE57F8
:10202000FE4F50E040E080E0219130E0092E02C0F8
:10203000369527950A94E2F721703327042E01C0C4
:10204000220F0A94EAF7822B4F5F5F4F453051050C
:1020500059F70895BF92CF92DF92EF92FF920F93BC
:102060001F93CF93DF938C01C0908701D09088019C
:10207000E0908901F0908A0180918B0190918C0110
:10208000A0918D01B0918E01C82AD92AEA2AFB2A93
:10209000CFE1D0E0BC2ED701C6010C2E04C0B6950E
:1020A000A795979587950A94D2F780FD0EC0219742
:1020B00088F7B12C8B2DDF91CF911F910F91FF905D
:1020C000EF90DF90CF90BF900895B8018C2F0E94C1
:1020D0001103019761F3EECFCF93DF93D82FC92F70
:1020E0000E942A106D2F7C2FDF91CF910C94110349
:1020F0001F93CF93DF93162FD72F909149019923E8
:1021000039F0862F972FDF91CF911F910C946C108F
:10211000882391F0862F972F0E942A10C82F682FAE
:10212000812F9D2F0E94D30F612F7D2F8C2FDF9148
:10213000CF911F910C941103862F972F0E940110AD
:10214000C82FF2CF80918F0185958595859508954B
:1021500080918F018770089598E0899F90011124E4
:10216000622B60938F010C94EB0E90918F01809500
:10217000892380938F01282F277061F4282F082E40
:10218000000C330B9217130629F0859585958595DC
:102190000C940D0F089590918F01977081E009F4D0
:1021A00080E00895909112019923E1F09091E5016A
:1021B00097FF18C0E82FE695E695E695EF3139F1DF
:1021C0002091000130910101E20FF32FF11D877082
:1021D00021E030E001C0220F8A95EAF78181822B4D
:1021E000818308952091000130910101F901329617
:1021F0009FEF40E05191851751F09F3F19F4511125
:1022000001C0942F4F5F4E31A9F79F3F09F4089505
:10221000290F311D97FD3A95F90182830895909118
:102220001201992301F19091E50197FF1CC0E82F5D
:10223000E695E695E695EF3139F120910001309170
:102240000101E20FF32FF11D877021E030E0A901B9
:1022500002C0440F551F8A95E2F7CA01809591810B
:102260008923818308952091000130910101F901B2
:102270003296205E3F4F9191891303C0DF01119781
:102280001C92E217F307B9F7089581E090E0E0911E
:102290000001F0910101E80FF91F108201968032D0
:1022A0009105A9F708959091B301982B9093B301EC
:1022B0000895982F90958091B30189238093B3015D
:1022C00008951092B30108959091B201982B9093C4
:1022D000B2010895982F90958091B201892380933F
:1022E000B20108951092B20108959091B101982B16
:1022F0009093B1010895982F90958091B101892311
:102300008093B10108951092B101089580939001D6
:1023100008951092900108952091000130910101DB
:10232000F9013196205E3F4F80E0919191118F5FCE
:10233000E217F307D1F70895E0910001F091010150
:102340008091B3018083E0910001F09101018081CF
:102350009091B201892B8083E0910001F0910101FD
:1023600080819091B101892B808390919001992374
:1023700061F0E0910001F09101018081892B80835F
:102380000E948C1181111092900180910001909116
:1023900001010C94EA056DEE7EEF90E080E00E9472
:1023A0002E1F60E082E090E00E941C1F60E083E04E
:1023B00090E00E941C1F60E084E090E00E941C1FDF
:1023C00060E085E090E00C941C1F90E080E00E94AB
:1023D000161F9C0181E02D3E3E4F09F080E00895DC
:1023E00082E090E00C940E1F682F82E090E00C9445
:1023F0001C1F83E090E00C940E1F682F83E090E098
:102400000C941C1F84E090E00C940E1F682F84E055
:1024100090E00C941C1F8091EB01843039F11092F4
:10242000B50188E190E020E40FB6F894A895809378
:1024300060000FBE2093600080E00E94F30283B72B
:10244000817F846083BF83B7816083BF78948895E0
:1024500083B78E7F83BF0FB6F894A89580916000F4
:10246000886180936000109260000FBE0895089507
:1024700008950E9437120E947F050E94381280E062
:102480000E94D205982F81E0911101C080E008954B
:102490000E94A50A0E94DE050C94F3021F921FB64B
:1024A0001F9211248F939F93AF93BF938091B50197
:1024B000811113C08091E1019091E201A091E301AB
:1024C000B091E4014196A11DB11D8093E10190936B
:1024D000E201A093E301B093E401BF91AF919F911A
:1024E0008F911F901FBE1F90189582E084BD93E0CE
:1024F00095BD9AEF97BD80936E0008952FB7F8941D
:102500008091E1019091E201A091E301B091E40199
:102510002FBF0895CF92DF92EF92FF929C014FB7A9
:10252000F8948091E1019091E201A091E301B091D2
:10253000E4014FBF6C017D01EE24FF24A90170E08E
:1025400060E0C416D506E606F70638F0821B930B4A
:10255000FF90EF90DF90CF9008950197F7CF1F92F3
:102560001FB61F9211248F939F93AF93BF938091B7
:10257000E1019091E201A091E301B091E4010196A3
:10258000A11DB11D8093E1019093E201A093E301AD
:10259000B093E401BF91AF919F918F911F901FBEA7
:1025A0001F9018950E94B71AF8942FEF87EA91E6CA
:1025B000215080409040E1F700C0000087E090EBA0
:1025C000DC018093F4019093F501A093F601B093A0
:1025D000F70188E19CE00FB6F894A895809360001D
:1025E0000FBE90936000FFCFEF92FF920F931F9367
:1025F000CF93DF93082F80E00E94D205D0E0C0E0A7
:10260000E82EF12C10E0C7010C2E02C0959587959D
:102610000A94E2F780FF10C06C2F70E080E00E9407
:10262000F6020817190741F481E0DF91CF911F915D
:102630000F91FF90EF9008952196C330D10519F7BF
:1026400080E0F3CFCF93C82F8CE20E94F41288234E
:1026500021F08C2FCF910C94F41280E0CF9108954B
:10266000CF93DF9300D000D0CDB7DEB70E94E51145
:10267000811102C00E94CB1195E6998308C00E9487
:102680007F058FE39CE90197F1F700C00000A98165
:10269000A150A983A111F3CF89E20E9422138111D5
:1026A00010C18AE20E94221381110E94CB1185E0A1
:1026B0000E94221381110E94D2120E94F011809375
:1026C000B40187E00E942213882371F08BE10E94FD
:1026D0002213882309F4D1C09091B401892F8D7FF2
:1026E00091FF82608093B4018091B4010E94F41143
:1026F0000E94021290E09093E6018093E50180EE43
:102700000E942213882341F09091E501892F8E7F4A
:1027100090FF81608093E50189E30E942213882362
:1027200041F09091E501892F8D7F91FF8260809328
:10273000E50182EE0E942213882341F09091E50189
:10274000892F8B7F92FF84608093E50186EE0E9443
:102750002213882341F09091E501892F877F93FF11
:1027600088608093E50183EE0E942213882341F064
:102770009091E501892F8F7E94FF80618093E50120
:1027800085E30E942213882341F09091E501892F6F
:102790008F7D95FF80628093E50181E30E94221383
:1027A000882341F09091E501892F8F7B96FF80640B
:1027B0008093E50181E10E942213882341F09091EA
:1027C000E501892F97FB87F980588093E501809177
:1027D000E5010E94061287E20E94221389838EE19E
:1027E0000E942213882319F0B981B260B9838FE166
:1027F0000E942213882319F029812460298380E212
:102800000E942213882319F039813860398381E2CC
:102810000E942213882319F049814061498382E292
:102820000E942213882319F059815062598383E250
:102830000E942213882319F089818064898384E2AD
:102840000E9422138823B1F199819068998389812C
:102850000E94FD113981232F30E050E040E02983B0
:102860003A834B835C83CA01B9010F900F900F909C
:102870000F90DF91CF910C94440E8EE00E942213B2
:10288000882339F09091B401892F8B7F92FF846067
:1028900029CF80E10E9422139091B401882329F06E
:1028A000892F877F93FF88601DCF892F8E7F90FFB0
:1028B000816018CFA981A111CACF0E94F911282FD8
:1028C000CBCF0F900F900F900F90DF91CF91089585
:1028D0008091B80180FF12C06091050185E0689F7A
:1028E000B0011124759567957595679560387105E8
:1028F000A8F561157105A1F1862F089581FF09C022
:102900006091050185E0689FB00111247595679578
:10291000EDCF6091050182FD0AC08091B901882345
:10292000D1F09091040160910501891728F085E0AC
:10293000689FB0011124DACF869FB001112485E091
:10294000869F9001879F300D1124692F70E0C90187
:102950000E94E01ECBCF65E070E0CECF8FE70895F8
:1029600081E008958091B80180FF0CC0609103015F
:1029700070E075956795759567956115710549F1D5
:10298000862F089581FF06C06091030170E0759560
:102990006795F3CF6091030182FD0BC09091B9015F
:1029A0009923A1F06091020180910301961738F0FC
:1029B000682F70E06038710500F38FE70895899FF4
:1029C000C001112470E00E94E01EF4CF61E070E0CD
:1029D000D7CF81E00895803F31F40E94681481953B
:1029E0008093BC010895813F19F40E946814F8CFC8
:1029F000823F31F40E94681481958093BB01089551
:102A0000833F19F40E946814F8CF893F29F40E948B
:102A1000B2148093BD0108958A3F21F40E94B2143C
:102A20008195F7CF8B3F31F40E94B214819580934A
:102A3000BE0108958C3F19F40E94B214F8CF843F70
:102A400031F48091BA0181608093BA010895853F85
:102A500021F48091BA018260F7CF863F21F4809102
:102A6000BA018460F1CF873F21F48091BA01886078
:102A7000EBCF883F21F48091BA018061E5CF8D3F93
:102A800031F48091B80181608093B80108958E3F40
:102A900021F48091B8018260F7CF8F3FB9F7809120
:102AA000B8018460F1CF9091BB01803F41F48091E7
:102AB000BC0187FD1092BC01992371F00895813FFC
:102AC00029F48091BC011816ACF3F6CF823F81F453
:102AD00097FFF2CF1092BB018091BC019091BD0194
:102AE000892B9091BE01892B49F71092B901089565
:102AF000833F19F4191674F3DFCF893F39F48091BD
:102B0000BD011816CCF61092BD01D6CF8A3F29F42C
:102B10008091BD0187FFD0CFF6CF8B3F39F48091F4
:102B2000BE0187FFC9CF1092BE01C6CF8C3F29F4EA
:102B30008091BE011816BCF3BFCF843F31F4809161
:102B4000BA018E7F8093BA01B7CF853F21F480917F
:102B5000BA018D7FF7CF863F21F48091BA018B7F38
:102B6000F1CF873F21F48091BA01877FEBCF883F77
:102B700021F48091BA018F7EE5CF8D3F31F48091B1
:102B8000B8018E7F8093B80197CF8E3F21F480915A
:102B9000B8018D7FF7CF8F3F09F08ECF8091B801BC
:102BA0008B7FF0CF8AEB91E00E94F5050E947E12A8
:102BB0009093B7018093B60108951F93CF93DF934D
:102BC00000D000D000D0CDB7DEB78091B601909193
:102BD000B7010E948A12AC018091B90120910601CF
:102BE00030E0811106C0209107019AE0299F9001F1
:102BF00011244217530788F02091BB01A091BC011A
:102C0000A9831091BD01B091BE01BE8321110FC0F7
:102C10009A2F912B9B2B09F0B2C026960FB6F894F1
:102C2000DEBF0FBECDBFDF91CF911F9108958F3FC3
:102C300019F08F5F8093B901121624F40E94681472
:102C40008093BB018091BB0187FF05C00E9468147F
:102C500081958093BB012981121624F40E94681487
:102C60008093BC018091BC0187FF05C00E9468145D
:102C700081958093BC018091BB01882309F455C0E4
:102C80003091BC013D83332309F44FC0282F880FB6
:102C9000330B440B550B29833A834B835C83CA0166
:102CA000B9010E94E71D23E333E343E35FE3698354
:102CB0007A838B839C8369817A818B819C810E943A
:102CC0004B1E69837A838B839C8369817A818B8194
:102CD0009C810E94AF1D6093BB018D81082E000C6A
:102CE000990BAA0BBB0B89839A83AB83BC83BC0172
:102CF000CD010E94E71D23E333E343E35FE36983F0
:102D00007A838B839C8369817A818B819C810E94E9
:102D10004B1E69837A838B839C8369817A818B8143
:102D20009C810E94AF1D6093BC01111624F40E9487
:102D3000B2148093BD018091BD0187FF05C00E9440
:102D4000B21481958093BD019E81191624F40E94CE
:102D5000B2148093BE018091BE0187FF05C00E941E
:102D6000B21481958093BE0126960FB6F894DEBF0B
:102D70000FBECDBFDF91CF911F910C94D2158F3F25
:102D800009F057CF68CF85E0EAEBF1E0DF011D9253
:102D90008A95E9F71092B9011092B80108958091CF
:102DA000DF010895CF93DF9300D00F92CDB7DEB748
:102DB0002091EB01243019F523E029838A839B833A
:102DC0002093E9008FEF9091E800815095FD06C0B7
:102DD00095ED9A95F1F700008111F5CF8091E8000B
:102DE00085FF0DC050E040E063E070E0CE01019649
:102DF0000E942F198091E8008E778093E8000F9051
:102E00000F900F90DF91CF910895CF93DF9300D073
:102E10000F92CDB7DEB79C018091EB01843031F584
:102E200082E08983205831093B832A8383E08093A1
:102E3000E9008FEF9091E800815095FD06C095ED77
:102E40009A95F1F700008111F5CF8091E80085FF98
:102E50000DC050E040E063E070E0CE0101960E94BA
:102E60002F198091E8008E778093E8000F900F90E3
:102E70000F90DF91CF9108952091EB012430F1F470
:102E800022E02093E9002FEF3091E800215035FD3A
:102E900006C035ED3A95F1F700002111F5CF2091EC
:102EA000E80025FF0BC050E040E065E070E00E94C4
:102EB0002F198091E8008E778093E8000895CF93D2
:102EC000DF93D82FC92F8091EB018430F1F49091DA
:102ED00012019923E9F09091E50197FF19C08093C1
:102EE000E9008FEF9091E800815095FD06C095E1D3
:102EF0009A95F1F700008111F5CF8091E80050E03C
:102F000040E060E270E085FD1AC0DF91CF91089546
:102F100081E08093E9008FEF9091E800815095FD6A
:102F200006C095ED9A95F1F700008111F5CF8091DB
:102F3000E80085FFEACF50E040E068E070E08D2FC8
:102F40009C2F0E942F198091E8008E778093E800D3
:102F500080E2ED2FFC2FAFEBB1E001900D928A954E
:102F6000E1F7D3CF8091EA01811109C00E94B71A1D
:102F70000E94141B8091E20084608093E200089517
:102F80001092EA010895089508950C94481242E0C1
:102F900061EC81E00E94331A42E061EC82E00E9421
:102FA000331A42E061EC83E00E94331A42E261ECA2
:102FB00084E00C94331A8091ED01893089F148F452
:102FC000823009F494C0833009F44FC0813041F05D
:102FD00008958A3009F47BC08B3009F461C00895EC
:102FE0008091EC01813A09F03FC08091E800877F31
:102FF0008093E8008091F0019091F101892B61F4B8
:1030000060E28FEB91E070E00E947E198091E80011
:103010008B778093E800089560E090E080E0F3CF44
:103020008091EC01813201F58091F0019091F101E4
:10303000009711F00397C1F48091E800877F809397
:10304000E8008091E80082FF0BC08091F10080933E
:10305000DF018091E8008B778093E8000C94671A79
:103060008091EB018111EDCF08958091EC01813ABF
:10307000D9F78091F0019091F101892BA9F7809106
:10308000E800877F8093E8008091E80080FFFCCF14
:10309000809112018093F1008091E8008E77DCCF5F
:1030A0008091EC01813201F78091F0019091F10162
:1030B000892BD1F68091E800877F8093E8000E94F9
:1030C000671A8091EE01809312010C94A50A8091F9
:1030D000EC01813249F68091E800877F8093E80017
:1030E0000E94671A8091EF018093E001089580911A
:1030F000EC01813A09F0B8CF8091E800877F809396
:10310000E8008091E80080FFFCCF8091E001C2CF11
:1031100084B7877F84BF0FB6F894A895809160002C
:10312000886180936000109260000FBE80E88093F9
:103130006100109261000E942D060E94B71A0E9441
:10314000141B8091E20084608093E20078940E94D6
:10315000941D0E942F0688E091E00E94D90580917D
:10316000EB01853019F00E943506F9CF0E940B1251
:103170008091E901882399F30E943912882379F319
:103180000E941919ECCF9C01DA01892F992783300D
:103190009105C1F068F48130910509F445C00297AA
:1031A00061F48DE690E02CE331E02D933C9308959B
:1031B00081329105E1F0829739F190E080E030E0D2
:1031C00020E0F3CFC9019927213059F082309105D1
:1031D00059F0E8E3F1E0892B81F7849190E09F01B9
:1031E000E4CFE0E2F1E0F9CFECE0F1E0F6CF6430DB
:1031F00020F7E62FF0E0EE0FFF1FEE5DFE4F20817F
:10320000318189E090E0D1CF6430B8F670E0FB0105
:10321000EE0FFF1FE65EFE4F208131816A5E7E4F1A
:10322000FB01808190E0C1CF82E190E029EA31E0AA
:10323000BCCF80E189BD82E189BD09B400FEFDCF2C
:103240008091D8008F7D8093D8008091E0008260CB
:103250008093E0008091E00081FDFCCF0895AF9263
:10326000BF92CF92DF92FF920F931F93CF93DF9382
:103270006C01EB018A010E94861AF82E811123C08D
:103280000115110539F0F80180819181C81BD90B16
:10329000C80ED91EB12CA12C2097A9F08091E8006E
:1032A00085FD22C08091E8008E778093E8000115AB
:1032B0001105A1F0F80180819181A80EB91EB1829B
:1032C000A08285E0F82E8F2DDF91CF911F910F9175
:1032D000FF90DF90CF90BF90AF9008950E94861A24
:1032E0008823D1F2F82EEFCFF60181916F01809300
:1032F000F1002197FFEFAF1ABF0ACECFFC01CB013F
:103300002091F2013091F3012617370790F00097D2
:1033100029F42091E8002E772093E80040E0009700
:1033200051F4411108C08091E80082FF31C080E073
:103330000895C901F3CF2091EB012223A9F1253093
:10334000A9F12091E80023FD2DC02091E80022FD85
:10335000EACF2091E80020FFE2CF3091F3002091E6
:10336000F200009719F02830310558F041E028307C
:10337000310509F040E02091E8002E772093E80025
:10338000CECF41914093F10001972F5F3F4FE9CF9E
:103390008091EB01882341F0853041F08091E80075
:1033A00083FFC1CF81E0089582E0089583E008950E
:1033B000FC01CB012091F2013091F3012617370770
:1033C00090F0009729F42091E8002E772093E800F0
:1033D00040E0009751F4411108C08091E80082FF5D
:1033E00032C080E00895C901F3CF2091EB01222380
:1033F000B1F12530B1F12091E80023FD2EC02091DC
:10340000E80022FDEACF2091E80020FFE2CF3091D2
:10341000F3002091F200009719F02830310558F0A0
:1034200041E02830310509F040E02091E8002E7796
:103430002093E800CECF44914093F100319601975C
:103440002F5F3F4FE8CF8091EB01882341F085301B
:1034500041F08091E80083FFC0CF81E0089582E0D1
:10346000089583E00895982F973028F08F70809307
:10347000E90081E008959093E900242F762F50E031
:10348000981731F07091EC002091ED005091F00010
:1034900021FD02C09F5FE8CF3091EB003E7F30936B
:1034A000EB003091ED003D7F3093ED003091EB006B
:1034B00031603093EB007093EC002093ED0050935B
:1034C000F0002091EE0027FDE5CF80E00895809187
:1034D000EC0187FF13C08091E80082FF06C0809155
:1034E000E8008B778093E80004C08091EB018111A4
:1034F000F2CF08958091EB018823D9F38091E80001
:1035000080FFF8CF8091E8008E77ECCF2091E40027
:103510003091E50095E6A9012091EC00822F8170A1
:1035200020FF06C08091E80080FF06C080E008957B
:103530002091E80022FD1AC08091EB01882389F0D8
:10354000853089F08091EB0085FD0FC02091E4006B
:103550003091E50042175307F9F29150E1F684E00B
:10356000089582E0089583E0089581E008950E941F
:10357000251B0E942D1BE0EEF0E08081816080839E
:10358000E8EDF0E080818F77808319BCA7EDB0E093
:103590008C918E7F8C9380818F7E80831092EA0144
:1035A00008950F931F93CF93DF930E94251B0E94D2
:1035B0002D1BC8EDD0E088818F7788838881806853
:1035C000888388818F7D888319BC1092EB011092CB
:1035D000E7011092E9011092E80100EE10E0F80115
:1035E00080818B7F808388818160888342E060E076
:1035F00080E00E94331AE1EEF0E080818E7F8083CC
:10360000E2EEF0E080818160808380818860808349
:10361000F80180818E7F8083888180618883DF913B
:10362000CF911F910F910895E8EDF0E080818F7E9A
:103630008083E7EDF0E080818160808384E082BF59
:1036400081E08093EA010C94D11AE8EDF0E08081EA
:103650008E7F80831092E20008951092DA0010921B
:10366000E10008951F920F920FB60F9211242F932D
:103670003F934F935F936F937F938F939F93AF93FA
:10368000BF93EF93FF938091E10082FF0BC0809185
:10369000E20082FF07C08091E1008B7F8093E10010
:1036A0000E94931D8091DA0080FF19C08091D8009C
:1036B00080FF15C08091DA008E7F8093DA008091C0
:1036C000D90080FF94C080E189BD82E189BD09B441
:1036D00000FEFDCF81E08093EB010E94B217809144
:1036E000E10080FF19C08091E20080FF15C0809149
:1036F000E2008E7F8093E2008091E20080618093FF
:10370000E2008091D80080628093D80019BC85E0E7
:103710008093EB010E94C4178091E10084FF29C0CF
:103720008091E20084FF25C080E189BD82E189BDEE
:1037300009B400FEFDCF8091D8008F7D8093D80022
:103740008091E1008F7E8093E1008091E2008F7E86
:103750008093E2008091E20081608093E20080919A
:10376000E701882309F449C084E08093EB010E94BB
:10377000C5178091E10083FF29C08091E20083FF9B
:1037800025C08091E100877F8093E10082E08093F3
:10379000EB011092E7018091E1008E7F8093E100C0
:1037A0008091E2008E7F8093E2008091E200806150
:1037B0008093E20042E060E080E00E94331A809152
:1037C000F00088608093F0000E94C317FF91EF9192
:1037D000BF91AF919F918F917F916F915F914F9129
:1037E0003F912F910F900FBE0F901F90189519BC0D
:1037F0001092EB010E94C01772CF8091E30087FD09
:1038000002C081E0B2CF83E0B0CF1F920F920FB61B
:103810000F9211242F933F934F935F936F937F9356
:103820008F939F93AF93BF93CF93DF93EF93FF93C8
:10383000D091E900DF708091EC00C82FC17080FD4D
:10384000C0E81092E9008091F000877F8093F0003B
:1038500078940E94491C1092E9008091F0008860E1
:103860008093F000CD2BCF70C093E900FF91EF91D2
:10387000DF91CF91BF91AF919F918F917F916F9188
:103880005F914F913F912F910F900FBE0F901F901E
:1038900018951F93CF93DF93CDB7DEB7AA970FB6D6
:1038A000F894DEBF0FBECDBF8CEE91E0FC01019617
:1038B0002091F100208321E0843F9207B9F70E9414
:1038C000DB178091E80083FF16C18091EC01909195
:1038D000ED019A3008F00FC1E92FF0E0E859F04E01
:1038E0000C94F41E803881F0823809F004C1809174
:1038F000F0018F708093E9008091EB0085FB8827B1
:1039000080F91092E90006C08091E8019091E901E8
:10391000911182609091E800977F9093E8008093E6
:10392000F1001092F1008091E8008E77E0C08823CA
:1039300009F4CEC0823009F0DEC08091EE01811121
:10394000D1C08091F0018F7009F4D5C08093E90057
:103950002091EB0020FFC6C0933031F48091EB0042
:1039600080628093EB00BEC09091EB0090619093D9
:10397000EB0021E030E001C0220F8A95EAF72093A6
:10398000EA001092EA008091EB008860EACF811192
:10399000B2C01091EE011F778091E3008078812BF7
:1039A0008093E3008091E800877F8093E8000E9485
:1039B000671A8091E80080FFFCCF8091E300806867
:1039C0008093E30082E0111183E08093EB0193C0C8
:1039D0008058823008F08FC08091EE019091EF0105
:1039E0008C3D23E09207A1F583E08A838AE28983F4
:1039F0004FB7F894DE01139620E03EE051E2E32F4A
:103A0000F0E050935700E49120FF03C0E295EF707F
:103A10003F5FEF708E2F90E0EA30C0F0C7968D9335
:103A20009D932F5F243159F74FBF8091E800877F26
:103A30008093E8006AE270E0CE0101960E947E1950
:103A40008091E8008B778093E80055C0C096E7CF5F
:103A5000AE014F5F5F4F6091F0010E94C318BC013F
:103A6000892B09F448C08091E800877F8093E800A3
:103A700089819A810E94D819E3CF8038E1F580913D
:103A8000E800877F8093E8008091E7018093F10050
:103A90004ACF811130C09091EE01923060F5809153
:103AA000E800877F8093E8009093E7010E94671AFF
:103AB0008091E701882311F084E005C08091E30044
:103AC00087FDFACF81E08093EB010E94C71713C0F6
:103AD0008091EE01813079F481E0933009F080E04B
:103AE0008093E9011092E9008091E800877F80933C
:103AF000E8000E94671A8091E80083FF0AC0809165
:103B0000E800877F8093E8008091EB0080628093DB
:103B1000EB00AA960FB6F894DEBF0FBECDBFDF91C3
:103B2000CF911F9108950895CF938091EB01882341
:103B3000A1F0C091E900CF709091EC00892F8170C5
:103B400090FD80E8C82B1092E9008091E80083FD89
:103B50000E94491CCF70C093E900CF9108950E9444
:103B6000B61D6894B1110C94451E08950E942A1E3A
:103B700088F09F5798F0B92F9927B751B0F0E1F02E
:103B8000660F771F881F991F1AF0BA95C9F714C0DE
:103B9000B13091F00E94441EB1E008950C94441E8F
:103BA000672F782F8827B85F39F0B93FCCF3869517
:103BB00077956795B395D9F73EF490958095709574
:103BC00061957F4F8F4F9F4F0895E89409C097FBF1
:103BD0003EF490958095709561957F4F8F4F9F4FE4
:103BE0009923A9F0F92F96E9BB279395F695879528
:103BF00077956795B795F111F8CFFAF4BB0F11F4EB
:103C000060FF1BC06F5F7F4F8F4F9F4F16C0882391
:103C100011F096E911C0772321F09EE8872F762FC7
:103C200005C0662371F096E8862F70E060E02AF008
:103C30009A95660F771F881FDAF7880F96958795F4
:103C400097F9089557FD9058440F551F59F05F3F5D
:103C500071F04795880F97FB991F61F09F3F79F0AE
:103C600087950895121613061406551FF2CF469530
:103C7000F1DF08C0161617061806991FF1CF8695B2
:103C80007105610508940895E894BB276627772796
:103C9000CB0197F908950E945E1E0C94CF1E0E94DE
:103CA000C11E38F00E94C81E20F0952311F00C941C
:103CB000B81E0C94BE1E11240C94451E0E94221E98
:103CC00070F3959FC1F3950F50E0551F629FF0016F
:103CD000729FBB27F00DB11D639FAA27F00DB11D88
:103CE000AA1F649F6627B00DA11D661F829F222711
:103CF000B00DA11D621F739FB00DA11D621F839F98
:103D0000A00D611D221F749F3327A00D611D231F6D
:103D1000849F600D211D822F762F6A2F11249F57BB
:103D200050409AF0F1F088234AF0EE0FFF1FBB1FBE
:103D3000661F771F881F91505040A9F79E3F51057D
:103D400080F00C94B81E0C94451E5F3FE4F3983E3F
:103D5000D4F3869577956795B795F795E7959F5F27
:103D6000C1F7FE2B880F911D9695879597F90895B9
:103D700097F99F6780E870E060E008959FEF80EC1E
:103D8000089500240A9416161706180609060895C1
:103D900000240A9412161306140605060895092E27
:103DA0000394000C11F4882352F0BB0F40F4BF2B96
:103DB00011F460FF04C06F5F7F4F8F4F9F4F0895D6
:103DC00097FB072E16F4009407D077FD09D00E94C8
:103DD000FA1E07FC05D03EF4909581959F4F0895FB
:103DE000709561957F4F0895EE0FFF1F0590F49138
:103DF000E02D0994AA1BBB1B51E107C0AA1FBB1FE2
:103E0000A617B70710F0A61BB70B881F991F5A9566
:103E1000A9F780959095BC01CD010895F999FECF41
:103E200092BD81BDF89A992780B50895A8E1B0E0C8
:103E300042E050E00C94361F262FF999FECF92BD38
:103E400081BDF89A019700B4021639F01FBA20BD5F
:103E50000FB6F894FA9AF99A0FBE08950196272F93
:103E60000E941D1F0C941C1FDC01CB01FC01F99961
:103E7000FECF06C0F2BDE1BDF89A319600B40D92B6
:103E800041505040B8F70895F894FFCF5E026A029F
:103E90006E02720276027A027E02820286028A0232
:103EA0008E02920296029A029E02A202A602AA0222
:103EB00050085008A808A808EC08080980088008DD
:103EC00013098008DB09DB09460A800880084F0ACD
:103ED000721C971C7B1D971C7B1DC71CE81C7B1D3F
:043EE0003D1D491D1E
:103EE40091012808140A321ECF165F173C170517D4
:103EF400D21601313233404D363977022A02F401A9
:0A3F0400BB014E0167018001990125
:00000001FF
